:020000040800F2
:1000000000C00020C5030008A9030008AB030008D6
:10001000AD030008AF030008B103000800000000B2
:10002000000000000000000000000000B303000812
:10003000B503000800000000B7030008B90300087A
:100040000D0400080D0400080D0400080D0400084C
:100050000D0400080D0400080D0400080D0400083C
:100060000D0400080D0400080D0400080D0400082C
:100070000D0400080D0400080D0400080D0400081C
:100080000D0400080D0400080D0400080D0400080C
:100090000D0400080D0400080D0400080D040008FC
:1000A0000D0400080D0400080D0400080D040008EC
:1000B0000D0400080D0400080D0400080D040008DC
:1000C0000D0400080D0400080D0400080D040008CC
:1000D0000D0400080D0400080D0400080D040008BC
:1000E0000D0400080D0400080D0400080D040008AC
:1000F0000D0400080D0400080D0400080D0400089C
:100100000D0400080D0400080D0400080D0400088B
:100110000D0400080D0400080D0400080D0400087B
:100120000D0400080D0400080D0400080D0400086B
:1001300000000000000000000000000000000000BF
:1001400000000000000000000000000000000000AF
:10015000000000000000000000000000000000009F
:10016000000000000000000000000000000000008F
:10017000000000000000000000000000000000007F
:10018000000000000000000000000000000000006F
:10019000000000000000000000000000000000005F
:1001A000000000000000000000000000000000004F
:1001B000000000000000000000000000000000003F
:1001C000000000000000000000000000000000002F
:1001D000000000000000000000000000000000001F
:0401E0005FF8E0F1F3
:1001E40010B5054C237833B9044B13B10448AFF36D
:1001F40000800123237010BD3C0400200000000097
:100204005015000808B5034B1BB103490348AFF36D
:10021400008008BD000000004004002050150008C4
:1002240030B589B000240494059406940794184BBF
:100234009A6942F010029A619A6902F010020192DE
:10024400019A9A6942F020029A619A6902F02002A6
:100254000292029A9A6942F004029A619B6903F03D
:1002640004030393039B0B4D22464FF4C0512846CD
:1002740000F082FD4FF4C0530493012305930694C8
:100284000323079304A9284600F056FC09B030BDA7
:10029400001002400010014072B6FEE700B591B0B4
:1002A4002822002106A801F08FF80023019302936D
:1002B400039304930593012206924FF4803307932A
:1002C4000A9202220D920E934FF4E0130F9306A8A4
:1002D40000F06EFD80B90F230193022102910023E7
:1002E40003934FF480620492059301A800F092FFF7
:1002F40020B911B05DF804FBFFF7CEFFFFF7CCFF88
:1003040008B500F083FBFFF7C9FFFFF789FF00F092
:10031400FBFA012000F079F80A21084600F084F87D
:100324000A231A460121084600F0AAF80A231A46AD
:100334000121084600F0F2F80A221146104600F0A6
:1003440008F91023054A0A211E2000F0E5F900F0FF
:10035400A9FA0A2000F07EFBFBE700BF681500083D
:1003640082B00E4B9A6942F001029A619A6902F0D6
:1003740001020092009ADA6942F08052DA61DB6984
:1003840003F080530193019B054A536823F0E06313
:1003940043F00073536002B0704700BF0010024086
:1003A40000000140FEE7FEE7FEE7FEE7FEE77047D8
:1003B4007047704708B500F03BFB08BD704700006C
:1003C400FFF7FCFF0B480C490C4A002302E0D45809
:1003D400C4500433C4188C42F9D3094A094C00238D
:1003E40001E013600432A242FBD300F0C9FFFFF71F
:1003F40087FF7047000000203C040020902F000875
:100404003C04002060080020FEE710B5044610B14B
:10041400012C04D010BDA62000F02EFAF8E7A72086
:1004240000F02AFAF6E700004FEAD10C01F00701C8
:1004340001238B40DBB2044A02EBC00010F80C200D
:10044400134300F80C307047580400204FEAD10CD5
:1004540001F00701012303FA01F1C9B2074A02EBD3
:10046400C00010F80C30DB43DBB200F80C300B4357
:1004740000F80C30DB4300F80C30704758040020BF
:100484002DE9F04F83B08046A2EB000B8946A3EB25
:10049400010ABBF1000F0DDD01230093BAF1000F37
:1004A40014DD01230193D3451CDD5E4600252F4650
:1004B4002C461BE0BBF1000F05D0A0EB020B4FF064
:1004C400FF330093EAE7CDF800B0E7E7BAF1000F95
:1004D40005D0CBF1000A4FF0FF330193E3E7CDF8E9
:1004E40004A0E0E75646E1E70134A4B2B44212DCCA
:1004F4005FFA89F15FFA88F0FFF796FF5F4455448D
:10050400BE4202DABF1B009B9844AE42ECDAAD1B3C
:10051400019B9944E8E703B0BDE8F08FF8B50746BE
:100524000D4614461E460246FFF7AAFF2B462246F6
:1005340029463846FFF7A4FF33462246314638465B
:10054400FFF79EFF3346224629462046FFF798FFD1
:10055400F8BD2DE9F04F85B082468946039200929A
:100564000023019302E0009B013B0093009B03FBEB
:1005740003F6039B03FB03F30293B3EB460F49DC3F
:100584009DF8045005EB0A07FFB29DF80040A9EB63
:1005940004085FFA88F841463846FFF745FFAAEB9E
:1005A400050B5FFA8BFB41465846FFF73DFF04EB12
:1005B40009085FFA88F841465846FFF735FF414677
:1005C4003846FFF731FF04EB0A085FFA88F805EBB9
:1005D4000907FFB239464046FFF726FFA9EB050598
:1005E400EDB229464046FFF71FFFAAEB0404E4B22C
:1005F40029462046FFF718FF39462046FFF714FF27
:10060400019B013303FB0366029AB61A002EAADC8F
:100614000193ABE705B0BDE8F08F00002DE9F04F82
:1006240083B0019000919946082B12D013F0070370
:1006340018BF012303EBD90B4FEA590303FB0BFB50
:100644005FFA8BFB203A5FFA82FA019F4FF00008B1
:100654003BE04FF0060BF5E70AEB4A032A4A02EBAC
:10066400430313F80860009D002416E00AEB4A03D4
:10067400264A02EB830313F80860F4E7244B03EBE8
:100684000A1313F80860EEE729463846FFF7DEFE42
:1006940076080135EDB20134E4B2072C07D816F020
:1006A400010FF1D029463846FFF7BEFEF0E70137C7
:1006B400FFB2B9F1080F04D0019BFB1AB3EB590F39
:1006C40019D008F101085FFA88F8D84519D2B9F1B0
:1006D400080FC1D0B9F10C0FC8D0B9F1100FCDD0AB
:1006E400B9F1180F0DD10AEBCA030A4A02EB8303CE
:1006F40013F80860B7E700990831CBB20093019F63
:10070400DFE703B0BDE8F08F84150008AC170008DC
:10071400201C000810220008F8B504460F461546B0
:100724001E4602E00634E4B201352A78A2F1200024
:10073400C0B25E280AD8334639462046FFF76EFF1A
:10074400082EEFD004EB5604E4B2EDE7F8BD000048
:1007540010B5134C01224FF48051204600F00CFBDD
:10076400012000F077F901224FF40061204600F0E7
:1007740003FB012000F06EF900224FF48051204663
:1007840000F0FAFA012000F065F900224FF400614C
:10079400204600F0F1FA012000F05CF910BD00BF22
:1007A4000010014010B50E4C00224FF48051204639
:1007B40000F0E2FA012000F04DF901224FF400614B
:1007C400204600F0D9FA012000F044F901224FF448
:1007D4008051204600F0D0FA012000F03BF910BD12
:1007E4000010014010B50E4C01224FF480512046F8
:1007F40000F0C2FA012000F02DF901224FF400614B
:10080400204600F0B9FA012000F024F900224FF448
:100814000061204600F0B0FA012000F01BF910BD81
:100824000010014070B50446002516E000224FF484
:100834008051104800F0A0FA0E4E01224FF40061DE
:10084400304600F099FA00224FF40061304600F07F
:1008540093FA6400E4B20135EDB2072D09D814F01F
:10086400800FE3D001224FF48051024800F084FA53
:10087400E2E770BD0010014010B50446FFF768FFC1
:100884007820FFF7CFFFFFF7ADFF0020FFF7CAFF87
:10089400FFF7A8FF2046FFF7C5FFFFF7A3FFFFF709
:1008A40081FF10BD38B5002510E0164B03EBC403DF
:1008B400585DFFF7B7FFFFF795FF0134E4B214F07A
:1008C400800FF2D0FFF76EFF0135EDB2072D18D877
:1008D400A5F15000C0B2FFF7CFFF0020FFF7CCFF17
:1008E4001020FFF7C9FFFFF733FF7820FFF79AFFC7
:1008F400FFF778FF4020FFF795FFFFF773FF002411
:10090400DDE738BD5804002008B5AE20FFF7B4FF7A
:100914000020FFF7B1FF1020FFF7AEFF4020FFF7E4
:10092400ABFF8120FFF7A8FFCF20FFF7A5FFA12091
:10093400FFF7A2FFC820FFF79FFFA620FFF79CFF49
:10094400A820FFF799FF3F20FFF796FFD320FFF77A
:1009540093FF0020FFF790FFD520FFF78DFF802045
:10096400FFF78AFFD920FFF787FFF120FFF784FF05
:10097400DA20FFF781FF1220FFF77EFFDB20FFF76D
:100984007BFF4020FFF778FF2020FFF775FF022050
:10099400FFF772FF8D20FFF76FFF1420FFF76CFF46
:1009A400A420FFF769FFA620FFF766FFAF20FFF73B
:1009B40063FFC820FFF760FFA120FFF75DFF08BDBC
:1009C40010B504460E4B18784FF47A73B3FBF0F36A
:1009D4000C4A1068B0FBF3F000F09AF868B90F2CD9
:1009E40001D901200AE0002221464FF0FF3000F037
:1009F40057F8054B1C60002000E0012010BD00BF2B
:100A040004000020000000200800002008B5074A68
:100A1400136843F010031360032000F02FF80F2035
:100A2400FFF7CEFFFFF79CFC002008BD002002402A
:100A3400034A1168034B1B780B441360704700BFD3
:100A44005808002004000020014B1868704700BFBC
:100A54005808002038B50446FFF7F6FF0546B4F100
:100A6400FF3F02D0044B1B781C44FFF7EDFF401BF3
:100A7400A042FAD338BD00BF04000020074AD3685F
:100A840023F4E0631B041B0C000200F4E060034346
:100A940043F0BF6343F40033D360704700ED00E0DC
:100AA40000B5194BDB68C3F30223C3F1070CBCF197
:100AB400040F28BF4FF0040C03F1040EBEF1060F1F
:100AC40018D9033B4FF0FF3E0EFA0CFC21EA0C014F
:100AD40099400EFA03F322EA0303194300280BDBBF
:100AE4000901C9B200F1604000F5614080F80013CB
:100AF4005DF804FB0023E5E700F00F000901C9B22B
:100B0400024B1954F4E700BF00ED00E014ED00E0DF
:100B14000138B0F1807F0BD24FF0E0235861054AD1
:100B2400F02182F823100020986107221A6170478F
:100B34000120704700ED00E070B582B00024A446A7
:100B4400B0E0874DAA4210D007D9864DAA420CD0F6
:100B540005F58035AA4208D013E0A5F58015AA4210
:100B640003D005F57025AA4207D18A68002A62D00D
:100B7400012A5BD04361082403E0A5F58015AA424D
:100B8400F3D0BEF1FF0F58D80646BEF1FF0F56D87A
:100B94004FEA8C0233680F25954023EA050304FAD3
:100BA40002F2134333604B6813F0805F78D06E4BCE
:100BB4009A6942F001029A619B6903F0010301936F
:100BC400019B4FEA9C02951C684B53F825600CF07E
:100BD40003039D000F23AB4026EA0306644B9842AF
:100BE40033D003F58063984200F0988003F5806366
:100BF400984200F0958003F58063984200F092805B
:100C040003F58063984200F08F8003F58063984277
:100C140019D006231AE0CC68B3E7CC680434B0E7F3
:100C2400CC680834ADE7CC680C34AAE70361082427
:100C3400A7E70024A5E70424A3E7061DA5E7ACF174
:100C440008029200A6E7052300E00023AB403343EB
:100C54000232464D45F822304B6813F4801F65D0AC
:100C6400444A936843EA0E0393604B6813F4001FED
:100C740062D0404AD36843EA0E03D3604B6813F44E
:100C8400003F5FD03B4A536843EA0E0353604B680E
:100C940013F4803F5CD0374A136843EA0E031360B1
:100CA4000CF1010C0A6832FA0CF357D0012303FA51
:100CB4000CF302EA030E33EA0202F1D14A68122A63
:100CC4003FF63FAF122A3FF65CAF01A555F822F07C
:100CD4006F0B00081B0C0008250C0008370C0008DB
:100CE400870B0008870B0008870B0008870B000898
:100CF400870B0008870B0008870B0008870B000888
:100D0400870B0008870B0008870B0008870B000877
:100D1400870B00081F0C00082B0C0008012395E723
:100D2400022393E7032391E704238FE7114A93688F
:100D340023EA0E03936098E70E4AD36823EA0E036E
:100D4400D3609BE70B4A536823EA0E0353609EE784
:100D5400084A136823EA0E031360A1E702B070BDCA
:100D64000000221000003110001002400000014079
:100D740000080140000401400AB101617047090400
:100D84000161704782B0084B1B68084AA2FB032329
:100D94005B0A00FB03F3019300BF019B5A1E0192FF
:100DA400002BF9D102B0704700000020D34D62102F
:100DB400002800F0F18170B582B00446036813F096
:100DC400010F2CD0994B5B6803F00C03042B1DD04E
:100DD400964B5B6803F00C03082B12D06368B3F5E1
:100DE400803F41D0002B55D103F1804303F50433F8
:100DF4001A6822F480321A601A6822F480221A6077
:100E040037E08A4B5B6813F4803FE7D0874B1B685D
:100E140013F4003F03D06368002B00F0BF81236804
:100E240013F0020F75D0814B5B6813F00C0F5FD089
:100E34007E4B5B6803F00C03082B54D02369002B12
:100E440000F08A807A4B01221A60FFF7FDFD054607
:100E5400764B1B6813F0020F75D1FFF7F5FD401BAD
:100E64000228F5D903209EE1704A136843F48033C5
:100E74001360636843B3FFF7E7FD05466B4B1B68DC
:100E840013F4003FCBD1FFF7DFFD401B6428F5D9F5
:100E9400032088E1B3F5A02F09D0644B1A6822F42B
:100EA40080321A601A6822F480221A60E1E703F1A2
:100EB4008043A3F53C331A6842F480221A601A680E
:100EC40042F480321A60D4E7FFF7BEFD0546574B63
:100ED4001B6813F4003FA2D0FFF7B6FD401B642843
:100EE400F5D903205FE1514B5B6813F4803FA5D132
:100EF4004E4B1B6813F0020F03D02369012B40F003
:100F04004F814A4A136823F0F803616943EAC10335
:100F14001360236813F0080F33D0A369002B5CD04F
:100F2400434B0122C3F88024FFF78EFD05463F4B57
:100F34005B6A13F0020F21D1FFF786FD401B0228E4
:100F4400F5D903202FE1394A136823F0F8036169C6
:100F540043EAC1031360DCE7354B00221A60FFF754
:100F640073FD0546314B1B6813F0020FD1D0FFF718
:100F74006BFD401B0228F5D9032014E10120FFF783
:100F840001FF236813F0040F00F09680274BDB6900
:100F940013F0805F34D1254BDA6942F08052DA6174
:100FA400DB6903F080530193019B0125214B1B68EE
:100FB40013F4807F26D0E368012B3DD0002B53D15E
:100FC40003F1804303F504331A6A22F001021A6222
:100FD4001A6A22F004021A6233E0154B0022C3F8A5
:100FE4008024FFF731FD0546104B5B6A13F0020FB6
:100FF400C7D0FFF729FD401B0228F5D90320D2E012
:101004000025D3E70B4A136843F480731360FFF79A
:101014001BFD0646074B1B6813F4807FCBD1FFF7FB
:1010240013FD801B6428F5D90320BCE000100240A6
:1010340000004242007000405F4A136A43F001031B
:101044001362E36833B3FFF7FFFC06465A4B1B6A8F
:1010540013F0020F2FD1FFF7F7FC801B41F2883306
:101064009842F3D903209EE0052B09D0524B1A6A0B
:1010740022F001021A621A6A22F004021A62E0E7FC
:101084004D4B1A6A42F004021A621A6A42F00102D3
:101094001A62D6E7FFF7D8FC0646474B1B6A13F0E3
:1010A400020F08D0FFF7D0FC801B41F2883398422E
:1010B400F3D9032077E0E5B9E369002B72D03E4A07
:1010C400526802F00C02082A56D0022B17D03B4B70
:1010D40000221A66FFF7B8FC0446374B1B6813F06E
:1010E400007F47D0FFF7B0FC001B0228F5D903208E
:1010F40059E0314AD36923F08053D361DCE72F4BA5
:1011040000221A66FFF7A0FC05462B4B1B6813F060
:10111400007F06D0FFF798FC401B0228F5D9032076
:1011240041E0236AB3F5803F1AD023494B6823F486
:101134007413226A606A024313434B601F4B0122FB
:101144001A66FFF781FC04461B4B1B6813F0007FF3
:101154000ED1FFF779FC001B0228F5D9032022E009
:10116400154A536823F40033A1680B435360DCE74A
:10117400002018E0002016E0012B16D00E4B5B680F
:1011840003F48031226A914211D103F47013626A2C
:1011940093420ED1002006E001207047012002E0B6
:1011A400012000E0002002B070BD0120FBE7012017
:1011B400F9E70120F7E700BF0010024000004242B7
:1011C4000F4B5B6803F00C02082A01D00D487047EE
:1011D400C3F383420C49885C13F4803F0BD0084B63
:1011E4005B68C3F34043094AD35C064A02FB00F040
:1011F400B0FBF3F07047064B03FB00F0704700BFF1
:101204000010024000127A006C2F00087C2F0008A6
:1012140000093D00002800F0A08070B50D4604468A
:10122400524B1B6803F007038B420BD24F4A1368DF
:1012340023F007030B431360136803F007038B4287
:1012440040F08D80236813F0020F17D013F0040FC1
:1012540004D0474A536843F4E0635360236813F0AF
:10126400080F04D0424A536843F460535360404A21
:10127400536823F0F003A1680B435360236813F011
:10128400010F31D06368012B20D0022B25D0384ABE
:10129400126812F0020F64D035494A6822F0030242
:1012A40013434B60FFF7D0FB0646314B5B6803F0FA
:1012B4000C036268B3EB820F16D0FFF7C5FB801BEB
:1012C40041F288339842F0D9032045E0284A126855
:1012D40012F4003FE0D101203EE0254A126812F0EA
:1012E400007FD9D1012037E0204B1B6803F00703AE
:1012F400AB420AD91D4A136823F007032B4313603A
:10130400136803F00703AB422DD1236813F0040FD5
:1013140006D0174A536823F4E063E1680B43536033
:10132400236813F0080F07D0114A536823F460535D
:10133400216943EAC1035360FFF742FF0C4B5B682A
:10134400C3F303130B4AD35CD8400B4B18600B4B0D
:101354001868FFF735FB002070BD0120704701209D
:10136400FAE70120F8E70120F6E700BF0020024079
:10137400001002407415000800000020080000203E
:1013840070B50D4E0D4D761BB61006D0002455F8E1
:10139400043B01349847A642F9D1094E094D00F0A7
:1013A400D5F8761BB61006D0002455F8043B01345A
:1013B4009847A642F9D170BD842F0008842F0008F5
:1013C4008C2F0008842F0008830730B548D0541EA2
:1013D400002A3FD00346CAB201E0013C3AD303F8E5
:1013E400012B9D07F9D1032C2DD9CDB245EA052552
:1013F4000F2C45EA054536D9A4F1100222F00F0C52
:1014040003F1200EE6444FEA121C03F1100242E9F4
:10141400045542E9025510327245F8D10CF101022B
:1014240014F00C0F03EB021204F00F0C13D0ACF108
:10143400040323F003030433134442F8045B93428C
:10144400FBD10CF003042CB1CAB21C4403F8012BE9
:101454009C42FBD130BD64461346002CF4D1F9E71D
:1014640003461446BFE71A46A446E0E7024B13B10D
:10147400024800F005B8704700000000911400080D
:10148400002301461A46184600F01AB838B5084B2E
:10149400084D5B1B9C1007D0043B1D44013C55F8D0
:1014A40004399847002CF9D1BDE8384000F054B80D
:1014B400902F00088C2F0008704700BF704700BFB2
:1014C4002DE9F047DFF87CA00646DAF800009846DC
:1014D4000F469146FFF7F0FF1B4B1B68D3F84841BA
:1014E40024B365681F2D26DC5EB96B1C0235DAF85F
:1014F4000000636044F82570FFF7E0FF0020BDE8BA
:10150400F087012304EB8501C1F88890D4F8882181
:10151400AB401A43022EC4F88821C1F80881E4D1F3
:10152400D4F88C211343C4F88C31DEE703F5A67498
:10153400C3F84841D5E7DAF80000FFF7BFFF4FF0E2
:10154400FF30DCE738040020802F0008F8B500BF26
:10155400F8BC08BC9E467047F8B500BFF8BC08BC90
:041564009E467047E8
:1015680068656C6C6F206F6C65640000000000009B
:10157800000000000102030406070809000000003B
:1015880000000000002F0000000007000700001402
:101598007F147F1400242A7F2A1200626408132310
:1015A80000364955225000000503000000001C22A7
:1015B8004100000041221C000014083E08140008E5
:1015C800083E0808000000A0600000080808080895
:1015D800000060600000002010080402003E51492D
:1015E800453E0000427F40000042615149460021CB
:1015F80041454B31001814127F10002745454539E5
:10160800003C4A494930000171090503003649493F
:10161800493600064949291E0000363600000000F8
:101628005636000000081422410000141414141443
:1016380000004122140800020151090600324959EC
:10164800513E007C1211127C007F49494936003E08
:1016580041414122007F4141221C007F49494941C3
:10166800007F09090901003E4149497A007F0808BD
:10167800087F0000417F4100002040413F01007F7A
:1016880008142241007F40404040007F020C027F46
:10169800007F0408107F003E4141413E007F090958
:1016A8000906003E4151215E007F0919294600467E
:1016B800494949310001017F0101003F4040403F55
:1016C800001F2040201F003F4038403F006314089F
:1016D800146300070870080700615149454300007A
:1016E8007F41410000552A552A55000041417F009D
:1016F8000004020102040040404040400000010292
:101708000400002054545478007F4844443800387A
:101718004444442000384444487F00385454541802
:1017280000087E0901020018A4A4A47C007F080414
:1017380004780000447D4000004080847D00007FE4
:10174800102844000000417F4000007C0418047801
:10175800007C0804047800384444443800FC2424FD
:1017680024180018242418FC007C080404080048E5
:101778005454542000043F444020003C4040207C06
:10178800001C2040201C003C4030403C00442810F5
:101798002844001CA0A0A07C004464544C441414A9
:1017A80014141414000000000000000000000000E1
:1017B8000000FC000000000002000000000C020C09
:1017C800020000000000000090D0BCD0BC900003D4
:1017D800000300001824FE448C00030207020100E5
:1017E8001824D8B04C80000300010201C038E43846
:1017F800E0000102020102020806000000000000E9
:1018080000000000000000F80402000000010204CB
:10181800000204F800000004020100009060F86073
:1018280090000000010000002020FC2020000000A3
:101838000100000000000000000008060000000091
:1018480020202020200000000000000000000000F0
:1018580000000002000000000080601C0200040379
:1018680000000000F8040404F8000102020201006C
:101878000008FC0000000002030200001884442451
:10188800180003020202020008042424D8000102FE
:101898000202010040B088FC800000000003020042
:1018A8003C242424C400010202020100F824242C50
:1018B800C0000102020201000C04E41C0400000044
:1018C80003000000D8242424D800010202020100E9
:1018D80038444444F80000030202010000001000EC
:1018E80000000000020000000000200000000000CE
:1018F80006000000002050880402000000000102D9
:101908009090909090000000000000000002048871
:1019180050200002010000001804C4241800000030
:1019280002000000F804E494F80001020202020038
:1019380000E09CF0800002030000030204FC242461
:10194800D800020302020100F80404040C0001029A
:101958000202010004FC0404F80002030202010070
:1019680004FC24740C0002030202030004FC247427
:101978000C00020302000000F0080444CC400001FF
:101988000202010004FC2020FC0402030000030200
:101998000404FC040400020203020200000404FC24
:1019A800040406040403000004FC24D00C0402030D
:1019B8000200030204FC0400000002030202020306
:1019C800FC3CC03CFC0003000300030004FC30C4E2
:1019D800FC04020302000300F8040404F8000102F6
:1019E8000202010004FC2424180002030200000083
:1019F800F8848404F80001020207050004FC24644A
:101A08009800020302000302182424448C000302F5
:101A1800020201000C04FC040C0000020302000096
:101A280004FC0000FC04000102020100047C80E0C8
:101A38001C040000030000001CE03CE01C00000344
:101A480000030000049C609C0400020300030200E1
:101A5800041CE01C04000002030200000C84641C47
:101A680004000203020203000000FE02020000005C
:101A780007040400000E30C000000000000102004E
:101A8800000202FE00000004040700000004020433
:101A9800000000000000000000000000000008082E
:101AA800080808080000020000000000000000000C
:101AB8000040A0A0C00000010202030204FC202094
:101AC800C00000030202010000C0202060000001E5
:101AD8000202020000C02024FC00000102020302EE
:101AE80000C0A0A0C0000001020202000020F824EB
:101AF80024040002030202000040A0A060200007A6
:101B08000A0A0A0404FC2020C0000203020003029F
:101B18000020E4000000000203020000000020E4AE
:101B2800000008080807000004FC80E020200203E9
:101B3800020003020404FC00000002020302020087
:101B4800E020E020C00003000300030020E0202084
:101B5800C00002030200030200C02020C0000001F0
:101B68000202010020E02020C000080F0A02010044
:101B780000C02020E0000001020A0F0820E04020F9
:101B880020000203020000000060A0A02000000264
:101B9800020203000020F8200000000001020200F9
:101BA80020E00020E00000010202030220E0208083
:101BB80060200000030100006080E08060000003F6
:101BC8000003000020608060200002030003020080
:101BD80020E0208060200808070100000020A060A5
:101BE8002000000203020200000020DE02000000C4
:101BF80000070400000000FF00000000000F0000C4
:101C08000002DE20000000040700000002010204B8
:101C180004020000000000000000000000000000B6
:101C28000000000000000000000000F800000000B4
:101C3800000000333000000000100C06100C0600F5
:101C4800000000000000000040C07840C07840005C
:101C5800043F04043F040400007088FC08300000BE
:101C6800001820FF211E0000F008F000E018000016
:101C780000211C031E211E0000F0088870000000CF
:101C88001E2123241927211010160E000000000021
:101C98000000000000000000000000E0180402003E
:101CA800000000071820400000020418E0000000AF
:101CB8000040201807000000404080F080404000AD
:101CC8000202010F01020200000000F00000000003
:101CD8000101011F010101000000000000000000D7
:101CE80080B070000000000000000000000000004C
:101CF80000010101010101010000000000000000D5
:101D0800003030000000000000000000806018046F
:101D1800006018060100000000E010080810E0004C
:101D2800000F102020100F00001010F80000000015
:101D38000020203F2020000000700808088870005C
:101D480000302824222130000030088888483000DC
:101D58000018202020110E000000C02010F80000FC
:101D680000070424243F240000F808888808080095
:101D78000019212020110E0000E0108888180000AA
:101D8800000F112020110E0000380808C83808007C
:101D98000000003F000000000070880808887000FC
:101DA800001C222121221C0000E010080810E0007D
:101DB8000000312222110F00000000C0C000000006
:101DC800000000303000000000000080000000002B
:101DD8000000806000000000000080402010080023
:101DE80000010204081020004040404040404000EC
:101DF80004040404040404000008102040800000C7
:101E08000020100804020100007048080808F000CB
:101E18000000003036010000C030C828E810E0009B
:101E28000718272423140B000000C038E000000026
:101E3800203C23020227382008F888888870000090
:101E4800203F202020110E00C03008080808380064
:101E5800071820202010080008F808080810E000DB
:101E6800203F202020100F0008F88888E80810007C
:101E7800203F20202320180008F88888E808100050
:101E8800203F200003000000C03008080838000088
:101E980007182020221E020008F808000008F80889
:101EA800203F210101213F20000808F80808000010
:101EB8000020203F2020000000000808F808080043
:101EC800C08080807F00000008F888C028180800BB
:101ED800203F20012638200008F8080000000000F4
:101EE800203F20202020300008F8F800F8F80800EB
:101EF800203F003F003F200008F830C00008F808E5
:101F0800203F200007183F00E01008080810E000F4
:101F18000F10202020100F0008F808080808F0000B
:101F2800203F210101010000E01008080810E0002E
:101F38000F18242438504F0008F8888888887000C3
:101F4800203F2000030C3020007088080808380063
:101F58000038202121221C00180808F80808180059
:101F68000000203F2000000008F808000008F808DA
:101F7800001F202020201F000878880000C838088B
:101F8800000007380E010000F80800F80008F80003
:101F9800033C0700073C030008186880806818089D
:101FA80020302C03032C30200838C800C83808001B
:101FB8000000203F2000000010080808C83808006A
:101FC8002038262120201800000000FE020202000E
:101FD8000000007F40404000000C30C000000000BE
:101FE800000000010638C00000020202FE000000E6
:101FF800004040407F00000000000402020204008C
:1020080000000000000000000000000000000000C8
:1020180080808080808080800002020400000000B0
:1020280000000000000000000000808080800000A8
:102038000019242222223F2008F800808000000096
:10204800003F112020110E00000000808080000059
:10205800000E112020201100000000808088F80068
:10206800000E112020103F2000008080808000009A
:10207800001F222222221300008080F088888818FE
:102088000020203F20200000000080808080800009
:10209800006B94949493600008F80080808000009E
:1020A800203F210000203F20008098980000000079
:1020B8000020203F202000000000008098980000A9
:1020C80000C08080807F000008F8000080808000C9
:1020D800203F24022D302000000808F800000000EE
:1020E8000020203F202000008080808080808000A9
:1020F800203F20003F20003F80800080808000003B
:10210800203F210000203F200000808080800000C8
:10211800001F202020201F008080008080000000F9
:1021280080FFA12020110E00000000808080800028
:10213800000E112020A0FF80808080008080800019
:1021480020203F2120000100000080808080800046
:102158000033242424241900008080E080800000BB
:102168000000001F20200000808000000080800008
:10217800001F202020103F20808080000080808069
:1021880000010E30080601008080008000808080F9
:102198000F300C030C300F0000808000808080001E
:1021A8000020312E0E312000808080000080808049
:1021B80080818E70180601000080808080808000F9
:1021C8000021302C2221300000000000807C020217
:1021D80000000000003F404000000000FF00000039
:1021E80000000000FF0000000002027C80000000E8
:1021F8000040403F00000000000601010202040404
:1022080000000000000000000000000000000000C6
:1022180000000000000000000000000000000000B6
:1022280000000000000000000000000000000000A6
:1022380000F0F0F0000000000000000000017F0145
:102248000000000000000000001C1C1C0000000032
:1022580000008060301C8C60301C0C000000000006
:102268000000000000000000000000000000000066
:1022780000000000000000E00000000000E0000096
:102288000086E69F86868686E69F860000011F01F7
:10229800010101011F010100000080C06020F82039
:1022A800E0C00000000003070C18FF70E181000087
:1022B8000000070F10107F100F07000080602060DB
:1022C80080000000E02000000F3020309F70DC37D5
:1022D8001030C0000000100E030007181018070087
:1022E8000000C02020E0C0000000000080E01F388F
:1022F800E88703C43C040000070F1810100B070DF3
:102308001010080000808C4C38000000000000000D
:1023180000000000000000000000000000000000B5
:10232800000000000000000000000000000080E045
:10233800300804000000000000FEFF01000000005B
:10234800000000000000030F1820400000040830BF
:10235800E0800000000000000000000001FFFE0017
:1023680000000000004020180F03000000000000DB
:10237800000000000000C000000000000042666687
:102388003C18FF183C66664200000000000003008D
:1023980000000000000000000000800000000000B5
:1023A800001010101010FF10101010100000000086
:1023B8000000030000000000000000000000000012
:1023C8000000000000000000000000000000000005
:1023D80000808C4C38000000000000000000000065
:1023E8000000000000000000001010101010101075
:1023F80010101000000000000000000000000000A5
:1024080000000000000000000000000000000000C4
:10241800000000000000000000001C1C1C00000060
:10242800000000000000000000000000E0380C0080
:102438000000000080701C03000000000060380EDF
:102448000100000000000000000080C06020206043
:10245800C080000000FEFF010000000001FFFE0038
:102468000001070E181010180E07010000008080E8
:1024780080C0E000000000000000000000FFFF0036
:102488000000000000001010101F1F1010100000A6
:102498000080402020202060C0800000000303004E
:1024A800804020381F070000001C1A191818181837
:1024B800181F00000080C020202060C0800000009D
:1024C800000303001010182FE780000000070F100A
:1024D800101010180F070000000000000000C0E0F6
:1024E800F000000000C0B088868180FFFF80800077
:1024F800000000000010101F1F1010000000E06016
:10250800606060606060000000003F100808081804
:10251800F0E0000000070B101010101C0F03000063
:10252800000080C040202020E0C0000000FCFF2107
:102538001008080818F0E0000001070C1810101027
:10254800080F03000000C0E06060606060E06000A9
:10255800000003000000E018070000000000000071
:10256800001F1F00000000000080C0602020202005
:1025780060C080000087EF2C1818303068CF8300C7
:1025880000070F0810101010180F07000000C0C037
:1025980020202020C0800000001F3F6040404020D5
:1025A80010FFFE0000000C1C101010080F030000A4
:1025B8000000000000000000000000000000000013
:1025C800000E0E0E0000000000000000001C1C1C85
:1025D80000000000000000000000000000000000F3
:1025E80000000000000C0C000000000000000000CB
:1025F80000583800000000000000000000000080C3
:102608004020100000001028448201000000000053
:102618000000000000000102040810000000000093
:102628000000000000000000008484848484848406
:102638008484840000000000000000000000000006
:102648000000102040800000000000000000000092
:102658000000018244281000000010080402010054
:102668000000000000C020201010101030E0C00052
:102678000003030000F010080C070300000000002E
:102688001C1C1C0000000000000000C0406020204E
:102698002040C00000FCFF01F00E03C1FE03807F54
:1026A8000001070E081111101109040200000000B2
:1026B80080E0E000000000000000807C4340477F8D
:1026C800F880000010181F1000000000131F1C10D5
:1026D80020E0E02020202060C080000000FFFF10E4
:1026E800101010182FE78000101F1F101010101066
:1026F800180F0700000080C0402020202060E00064
:1027080000FCFF0100000000000001000001070EAE
:10271800181010100804030020E0E02020202040BA
:10272800C080000000FFFF000000000001FFFE0065
:10273800101F1F10101018080E07010020E0E020DD
:10274800202020202060800000FFFF101010107C47
:1027580000000000101F1F101010101010180600A5
:1027680020E0E020202020206060800000FFFF1093
:102778001010107C00000100101F1F100000000046
:1027880000000000000080C06020202040E0000021
:1027980000FCFF0100004040C0C140400001070E9E
:1027A800181010100F0F000020E0E02000000000BB
:1027B80020E0E02000FFFF101010101010FFFF00B5
:1027C800101F1F1000000000101F1F100000202005
:1027D80020E0E020202000000000000000FFFF00B3
:1027E8000000000000001010101F1F101010000043
:1027F80000000000202020E0E02020200000000051
:10280800000000FFFF0000000060E0808080C07FC3
:102818003F00000020E0E020000020A06020200011
:1028280000FFFF30187CE3C000000000101F1F10DD
:10283800000001131F1C181020E0E0200000000019
:102848000000000000FFFF00000000000000000082
:10285800101F1F10101010101018060020E0E0E0E4
:1028680000000000E0E0E02000FF013FFEC0E01EA5
:1028780001FFFF00101F1000031F0300101F1F108F
:1028880020E0E0C0000000000020E02000FF00037E
:10289800071C78E08000FF00101F100000000000F7
:1028A800030F1F00000080C060202060C08000006F
:1028B80000FEFF010000000000FFFE000001070EFF
:1028C800181010180C07010020E0E020202020201C
:1028D80060C0800000FFFF2020202020301F0F0054
:1028E800101F1F100000000000000000000080C042
:1028F80060202060C080000000FEFF010000000092
:1029080000FFFE000001070E1111133C7C67210037
:1029180020E0E0202020202060C0800000FFFF1081
:102928001030F0D0080F0700101F1F100000000320
:102938000F1C10100080C060202020204040E000C4
:1029480000070F0C1818303060E08100001F0C08D9
:1029580010101010180F07008060202020E0E020E1
:10296800202060800100000000FFFF00000000013F
:1029780000000000101F1F100000000020E0E020F1
:10298800000000000020E02000FFFF000000000021
:102998000000FF0000070F181010101010080700A3
:1029A8002060E0E02000000020E060200000077FB9
:1029B800F88000807C03000000000000071F1C074F
:1029C8000000000020E0E02000E0E0200020E020FF
:1029D8000007FFF8E01FFFFCE01F00000000031FD6
:1029E8000300011F03000000002060E0A000002099
:1029F800E0602000000000038F7CF8C601000000A2
:102A08000010181E130001171F1810002060E0E0C6
:102A18002000000020E06020000001073EF8E018D8
:102A28000700000000000010101F1F101000000019
:102A380000806020202020A0E0E0200000000000AE
:102A4800C0F03E0F0300000000101C1F17101010EC
:102A5800101806000000000000FC04040404040030
:102A68000000000000FF000000000000000000005F
:102A7800007F404040404000000010E0000000009F
:102A88000000000000000000031C6080000000003F
:102A980000000000000000030C7080000000040427
:102AA800040404FC0000000000000000000000FF17
:102AB80000000000000040404040407F000000004F
:102AC80000000010080C040C0810000000000000B2
:102AD80000000000000000000000000000000000EE
:102AE80000000000000000000000000000000000DE
:102AF80000000000000000000000000080808080CE
:102B080080808080808080800000000404080800A5
:102B180000000000000000000000000000000000AD
:102B2800000000000000000000000000000000009D
:102B38000000000000000000000098D8446424242D
:102B4800FCF80000000F1F18101010081F1F1018A5
:102B58000020E0F000000000000000000000FFFF7F
:102B6800180804040CF8F00000001F0F18101010CB
:102B7800180F030000000000000000000000000023
:102B880000E0F8180404043C3800000000030F0CAF
:102B980010101010080600000000000000000020BF
:102BA800E0F0000000E0F81C04040408FFFF000047
:102BB80000030F18101010081F0F08000000000075
:102BC80000000000000000000000E0F84844444411
:102BD8004C7870000000030F0C1810101008040047
:102BE8000000000080C0602020E0C0000004040451
:102BF800FFFF040404040000000010101F1F101041
:102C080010000000000000000000000000000000AC
:102C1800000070F88C04048CF874040C007076CFF3
:102C28008D8D8D89C87870000020E0F000000000CC
:102C3800000000000000FFFF08040404FCF8000086
:102C480000101F1F100000101F1F100000000000C0
:102C580000606000000000000000040404FCFC00A8
:102C68000000000000001010101F1F1010100000BE
:102C7800000000000000006060000000000000008C
:102C8800040404FCFC0000000000C0C08080C07F79
:102C98003F0000000020E0F00000000000000000FD
:102CA8000000FFFF80C0F41C0404000000101F1F78
:102CB8001100031F1C1010000000202020E0F0006D
:102CC800000000000000000000FFFF0000000000FE
:102CD80000001010101F1F1010100000000000004E
:102CE800000000000000000004FCFC0804FCFC08D4
:102CF80004FCFC00101F1F10001F1F10001F1F10D6
:102D08000000000000000000000000000004FCFCBF
:102D180008080404FCF8000000101F1F1000001031
:102D28001F1F10000000000000000000000000004D
:102D380000E0F0180C04040C18F0E00000030F0C7D
:102D4800101010100C0F030000000000000000001D
:102D5800000000000004FCFC080404040CF8F00067
:102D68000080FFFF889010101C0F03000000000077
:102D7800000000000000000000E0F81C0404040843
:102D8800F8FC000000030F1810109088FFFF800067
:102D9800000000000000000000000000040404FC23
:102DA800FC100804040C0C001010101F1F10101049
:102DB800000000000000000000000000000000000B
:102DC80000003078CCC48484840C1C0000001E18D9
:102DD80010101011190F06000000000000C00000BC
:102DE8000000000000040404FFFF040404000000C5
:102DF800000000000F1F1010100C00000000000061
:102E080000000000000000000004FCFE00000004B8
:102E1800FCFE000000000F1F181010081F0F08000C
:102E280000000000000000000000000000040C3C4E
:102E3800FCC40000C43C0C0400000000010F1E0E7E
:102E48000100000000000000000000000000000079
:102E5800043CFCC400E47CFC84807C040000071F64
:102E6800070000071F070000000000000000000026
:102E7800000000000004041C7CE4C0341C040400AE
:102E88000010101C1601131F1C1810000000000071
:102E9800000000000000000000040C3CFCC400C45A
:102EA8003C0404000000C080C1370E01000000008F
:102EB80000000000000000000000000000001C04EA
:102EC80004C4F47C1C0400000000101C1F1711101F
:102ED80010180E0000000000000000F80C040000AC
:102EE80000000000001028EF0000000000000000B3
:102EF8000000003F60400000000000000000FF00EC
:102F080000000000000000000000FF0000000000BA
:102F1800000000000000FF00000000000000040C9A
:102F2800F80000000000000000000000EF2810007A
:102F380000000000000040603F00000000000000AA
:102F480000180602020408102020300800000000C3
:102F58000000000000000000000000000000000069
:102F68000000000002030405060708090A0B0C0DFF
:0C2F78000E0F10100102000010000020DD
:082F84007114000809020008A5
:042F8C00E501000853
:102F90000024F40001000000100000000000000008
:102FA00000000000FC02002064030020CC0300208D
:102FB0000000000000000000000000000000000011
:102FC0000000000000000000000000000000000001
:102FD00000000000000000000000000000000000F1
:102FE00000000000000000000000000000000000E1
:102FF00000000000000000000000000000000000D1
:1030000000000000000000000000000000000000C0
:1030100000000000000000000000000000000000B0
:1030200000000000000000000000000000000000A0
:103030000000000000000000000000000000000090
:10304000000000000000000001000000000000007F
:103050000E33CDAB34126DE6ECDE05000B00000044
:103060000000000000000000000000000000000060
:103070000000000000000000000000000000000050
:103080000000000000000000000000000000000040
:103090000000000000000000000000000000000030
:0C33C00000000000000000005C0800207D
:04000005080003C527
:00000001FF
